{
  "_format": "hh-sol-artifact-1",
  "contractName": "Counter",
  "sourceName": "contracts/Counter.sol",
  "abi": [
    {
      "inputs": [],
      "stateMutability": "nonpayable",
      "type": "constructor"
    },
    {
      "anonymous": false,
      "inputs": [
        {
          "indexed": false,
          "internalType": "uint256",
          "name": "newCounterValue",
          "type": "uint256"
        }
      ],
      "name": "CounterIncremented",
      "type": "event"
    },
    {
      "inputs": [],
      "name": "counter",
      "outputs": [
        {
          "internalType": "uint256",
          "name": "",
          "type": "uint256"
        }
      ],
      "stateMutability": "view",
      "type": "function"
    },
    {
      "inputs": [],
      "name": "getCounter",
      "outputs": [
        {
          "internalType": "uint256",
          "name": "",
          "type": "uint256"
        }
      ],
      "stateMutability": "view",
      "type": "function"
    },
    {
      "inputs": [],
      "name": "incrementCounter",
      "outputs": [],
      "stateMutability": "nonpayable",
      "type": "function"
    }
  ],
  "bytecode": "0x608060405234801561001057600080fd5b50600080819055506101bc806100276000396000f3fe608060405234801561001057600080fd5b50600436106100415760003560e01c80635b34b9661461004657806361bc221a146100505780638ada066e1461006e575b600080fd5b61004e61008c565b005b6100586100e0565b6040516100659190610108565b60405180910390f35b6100766100e6565b6040516100839190610108565b60405180910390f35b600160008082825461009e9190610152565b925050819055507f3cf8b50771c17d723f2cb711ca7dadde485b222e13c84ba0730a14093fad6d5c6000546040516100d69190610108565b60405180910390a1565b60005481565b60008054905090565b6000819050919050565b610102816100ef565b82525050565b600060208201905061011d60008301846100f9565b92915050565b7f4e487b7100000000000000000000000000000000000000000000000000000000600052601160045260246000fd5b600061015d826100ef565b9150610168836100ef565b92508282019050808211156101805761017f610123565b5b9291505056fea2646970667358221220af9936cdeefe5a7378d76ab7a3fb68092154caa4878a532aca1b2b14a0308eed64736f6c63430008130033",
  "linkReferences": {},
  "deployedLinkReferences": {}
}